:020000040000fa
:080000000002040000000000f2
:020000040000fa
:0400080016030000db
:020000040000fa
:04000c0016030000d7
:020000040000fa
:0400100016030000d3
:020000040000fa
:0400140016030000cf
:020000040000fa
:0400180016030000cb
:020000040000fa
:04001c0016030000c7
:020000040000fa
:0400200016030000c3
:020000040000fa
:0400240016030000bf
:020000040000fa
:04002800c80200000a
:020000040000fa
:04002c0016030000b7
:020000040000fa
:0400300016030000b3
:020000040000fa
:0400340016030000af
:020000040000fa
:0400380016030000ab
:020000040000fa
:04003c0016030000a7
:020000040000fa
:0400400016030000a3
:020000040000fa
:04004400160300009f
:020000040000fa
:04004800160300009b
:020000040000fa
:04004c001603000097
:020000040000fa
:040050001603000093
:020000040000fa
:04005400160300008f
:020000040000fa
:04005800160300008b
:020000040000fa
:04005c001603000087
:020000040000fa
:040060001603000083
:020000040000fa
:04006400160300007f
:020000040000fa
:04006800160300007b
:020000040000fa
:04006c001603000077
:020000040000fa
:040070001603000073
:020000040000fa
:04007400160300006f
:020000040000fa
:04007800160300006b
:020000040000fa
:04007c001603000067
:020000040000fa
:040080001603000063
:020000040000fa
:04008400160300005f
:020000040000fa
:04008800160300005b
:020000040000fa
:04008c001603000057
:020000040000fa
:040090001603000053
:020000040000fa
:04009400160300004f
:020000040000fa
:04009800160300004b
:020000040000fa
:04009c001603000047
:020000040000fa
:0400a0001603000043
:020000040000fa
:0400a400160300003f
:020000040000fa
:0400a800160300003b
:020000040000fa
:0400ac001603000037
:020000040000fa
:0400b0001603000033
:020000040000fa
:0400b400160300002f
:020000040000fa
:0400b800160300002b
:020000040000fa
:0400bc001603000027
:020000040000fa
:0400c0001603000023
:020000040000fa
:0400c400160300001f
:020000040000fa
:0400c800160300001b
:020000040000fa
:0400cc001603000017
:020000040000fa
:0400d0001603000013
:020000040000fa
:0400d400160300000f
:020000040000fa
:0400d800160300000b
:020000040000fa
:0400dc001603000007
:020000040000fa
:0400e0001603000003
:020000040000fa
:0400e40016030000ff
:020000040000fa
:0400e80016030000fb
:020000040000fa
:0400ec0016030000f7
:020000040000fa
:0400f00016030000f3
:020000040000fa
:0400f40016030000ef
:020000040000fa
:0400f80016030000eb
:020000040000fa
:0400fc0016030000e7
:020000040000fa
:0401000016030000e2
:020000040000fa
:0401040016030000de
:020000040000fa
:0401080016030000da
:020000040000fa
:04010c0016030000d6
:020000040000fa
:0401100016030000d2
:020000040000fa
:0401140016030000ce
:020000040000fa
:0401180016030000ca
:020000040000fa
:04011c0016030000c6
:020000040000fa
:0401200016030000c2
:020000040000fa
:0401240016030000be
:020000040000fa
:0401280016030000ba
:020000040000fa
:04012c0016030000b6
:020000040000fa
:0401300016030000b2
:020000040000fa
:0401340016030000ae
:020000040000fa
:0402080016030000d9
:020000040000fa
:04020c0016030000d5
:020000040000fa
:0402100016030000d1
:020000040000fa
:0402140016030000cd
:020000040000fa
:0402180016030000c9
:020000040000fa
:04021c0016030000c5
:020000040000fa
:0402200016030000c1
:020000040000fa
:0402240016030000bd
:020000040000fa
:04022800c802000008
:020000040000fa
:04022c0016030000b5
:020000040000fa
:0402300016030000b1
:020000040000fa
:0402340016030000ad
:020000040000fa
:0402380016030000a9
:020000040000fa
:04023c0016030000a5
:020000040000fa
:0402400016030000a1
:020000040000fa
:04024400160300009d
:020000040000fa
:040248001603000099
:020000040000fa
:04024c001603000095
:020000040000fa
:040250001603000091
:020000040000fa
:04025400160300008d
:020000040000fa
:040258001603000089
:020000040000fa
:04025c001603000085
:020000040000fa
:040260001603000081
:020000040000fa
:04026400160300007d
:020000040000fa
:040268001603000079
:020000040000fa
:04026c001603000075
:020000040000fa
:040270001603000071
:020000040000fa
:04027400160300006d
:020000040000fa
:040278001603000069
:020000040000fa
:04027c001603000065
:020000040000fa
:040280001603000061
:020000040000fa
:04028400160300005d
:020000040000fa
:040288001603000059
:020000040000fa
:04028c001603000055
:020000040000fa
:040290001603000051
:020000040000fa
:04029400160300004d
:020000040000fa
:040298001603000049
:020000040000fa
:04029c001603000045
:020000040000fa
:0402a0001603000041
:020000040000fa
:0402a400160300003d
:020000040000fa
:0402a8001603000039
:020000040000fa
:0402ac001603000035
:020000040000fa
:0402b0001603000031
:020000040000fa
:0402b400160300002d
:020000040000fa
:0402b8001603000029
:020000040000fa
:0402bc001603000025
:020000040000fa
:0402c0001603000021
:020000040000fa
:0402c400160300001d
:020000040000fa
:0402c8001603000019
:020000040000fa
:0402cc001603000015
:020000040000fa
:0402d0001603000011
:020000040000fa
:0402d400160300000d
:020000040000fa
:0402d8001603000009
:020000040000fa
:0402dc001603000005
:020000040000fa
:0402e0001603000001
:020000040000fa
:0402e40016030000fd
:020000040000fa
:0402e80016030000f9
:020000040000fa
:0402ec0016030000f5
:020000040000fa
:0402f00016030000f1
:020000040000fa
:0402f40016030000ed
:020000040000fa
:0402f80016030000e9
:020000040000fa
:0402fc0016030000e5
:020000040000fa
:0403000016030000e0
:020000040000fa
:0403040016030000dc
:020000040000fa
:0403080016030000d8
:020000040000fa
:04030c0016030000d4
:020000040000fa
:0403100016030000d0
:020000040000fa
:0403140016030000cc
:020000040000fa
:0403180016030000c8
:020000040000fa
:04031c0016030000c4
:020000040000fa
:0403200016030000c0
:020000040000fa
:0403240016030000bc
:020000040000fa
:0403280016030000b8
:020000040000fa
:04032c0016030000b4
:020000040000fa
:0403300016030000b0
:020000040000fa
:0403340016030000ac
:020000040000fa
:100400002f8020000e7f22000e01880000000000d7
:10041000000020000000e000020032000001200087
:100420002002880014000700820007000000e0009e
:1004300003003a00a038200001002000020037002d
:100440000000200001002000810f70000100320038
:1004500014000700000020000000e000020032004d
:1004600000000200000000001c0302000000000069
:100470000040da000000fe004440a9000000200017
:100480000000e0000300320000002000a00188000e
:100490004440a800000006008a1f78008b1f7800e7
:1004a0000000060091018800800478000000eb0045
:1004b0001a003700e284440032a0b4009905ba0063
:1004c000e284440032a0b4009906ba00e2844400f9
:1004d00032a0b4000006eb00476fde00fd07b2005b
:1004e000636ce10003003a00ebff07000000eb0043
:1004f0000a003700606ce10004003a00005deb0088
:100500008b05e900fdff3e00040037006168e10053
:10051000010032000086eb000b00070019c7ba008b
:100520001905ba000e04e00003003a000a00e000da
:10053000e0ff3a0000000600fe07b2009e018800be
:100540008a047800f5ff3700395dba008b05e900b1
:100550000c003200295dba008b05e900080032006a
:100560000c00e00003003a00e284440032a0b40032
:10057000f5ff370019ddba008b05e900faff3a00f4
:100580008904e800e184440032a0b40000000600c1
:100590003600f800809fbe00829fbe00849fbe0090
:1005a000869fbe000000fa00200480006100600009
:1005b0000000e000160032008400a9000040800026
:1005c0000000e00003003200e10f500003003200a1
:1005d0000400370040000700020037002f0007002a
:1005e00000000000004080008000e80010002800ab
:1005f000008060000000e00004003d000000e90011
:10060000e1ff2f00008070000000e800004088003b
:100610000080fa004f03be004f02be004f01be0033
:100620004f00be003600f900004006000040da002e
:080630000000fe0000000500bf
:020000040000fa
:100638000000fa001200070001000700ffff370062
:100648000000fa00dec2a8008200a9008400a90008
:100658009400a8002105800080ff2f000080600022
:100668000020a000200588000600fc001102800080
:10067800f141b200110288000080fa000000060073
:100688000000fa00cc22a900cc42a9000080fa00a0
:10069800000006000000fa00701680000000d1007b
:1006a8006140600000c0ea00614060000080fb001b
:1006b8006100600000004000811680000110a10068
:1006c80001007000801688000080fa000000060013
:1006d8000000fa00701680004200de0061406000f1
:1006e80000c0ea00614060000080fb00610060001b
:1006f8004200dd00811680000120a1000100700089
:0c070800801688000080fa000000060047
:020000040000fa
:1007140000080000020000000000000000000000cb
:00000001FF
