:020000040000fa
:080000000002040000000000f2
:020000040000fa
:040008000e030000e3
:020000040000fa
:04000c000e030000df
:020000040000fa
:040010000e030000db
:020000040000fa
:040014000e030000d7
:020000040000fa
:040018000e030000d3
:020000040000fa
:04001c000e030000cf
:020000040000fa
:040020000e030000cb
:020000040000fa
:040024000e030000c7
:020000040000fa
:040028000e030000c3
:020000040000fa
:04002c000e030000bf
:020000040000fa
:040030000e030000bb
:020000040000fa
:04003400d4020000f2
:020000040000fa
:040038000e030000b3
:020000040000fa
:04003c000e030000af
:020000040000fa
:040040000e030000ab
:020000040000fa
:040044000e030000a7
:020000040000fa
:040048000e030000a3
:020000040000fa
:04004c000e0300009f
:020000040000fa
:040050000e0300009b
:020000040000fa
:040054000e03000097
:020000040000fa
:040058000e03000093
:020000040000fa
:04005c000e0300008f
:020000040000fa
:040060000e0300008b
:020000040000fa
:040064000e03000087
:020000040000fa
:040068000e03000083
:020000040000fa
:04006c000e0300007f
:020000040000fa
:040070000e0300007b
:020000040000fa
:040074000e03000077
:020000040000fa
:040078000e03000073
:020000040000fa
:04007c000e0300006f
:020000040000fa
:040080000e0300006b
:020000040000fa
:040084000e03000067
:020000040000fa
:040088000e03000063
:020000040000fa
:04008c000e0300005f
:020000040000fa
:040090000e0300005b
:020000040000fa
:040094000e03000057
:020000040000fa
:040098000e03000053
:020000040000fa
:04009c000e0300004f
:020000040000fa
:0400a0000e0300004b
:020000040000fa
:0400a4000e03000047
:020000040000fa
:0400a8000e03000043
:020000040000fa
:0400ac000e0300003f
:020000040000fa
:0400b0000e0300003b
:020000040000fa
:0400b4000e03000037
:020000040000fa
:0400b8000e03000033
:020000040000fa
:0400bc000e0300002f
:020000040000fa
:0400c0000e0300002b
:020000040000fa
:0400c4000e03000027
:020000040000fa
:0400c8000e03000023
:020000040000fa
:0400cc000e0300001f
:020000040000fa
:0400d0000e0300001b
:020000040000fa
:0400d4000e03000017
:020000040000fa
:0400d8000e03000013
:020000040000fa
:0400dc000e0300000f
:020000040000fa
:0400e0000e0300000b
:020000040000fa
:0400e4000e03000007
:020000040000fa
:0400e8000e03000003
:020000040000fa
:0400ec000e030000ff
:020000040000fa
:0400f0000e030000fb
:020000040000fa
:0400f4000e030000f7
:020000040000fa
:0400f8000e030000f3
:020000040000fa
:0400fc000e030000ef
:020000040000fa
:040100000e030000ea
:020000040000fa
:040104000e030000e6
:020000040000fa
:040108000e030000e2
:020000040000fa
:04010c000e030000de
:020000040000fa
:040110000e030000da
:020000040000fa
:040114000e030000d6
:020000040000fa
:040118000e030000d2
:020000040000fa
:04011c000e030000ce
:020000040000fa
:040120000e030000ca
:020000040000fa
:040124000e030000c6
:020000040000fa
:040128000e030000c2
:020000040000fa
:04012c000e030000be
:020000040000fa
:040130000e030000ba
:020000040000fa
:040134000e030000b6
:020000040000fa
:040208000e030000e1
:020000040000fa
:04020c000e030000dd
:020000040000fa
:040210000e030000d9
:020000040000fa
:040214000e030000d5
:020000040000fa
:040218000e030000d1
:020000040000fa
:04021c000e030000cd
:020000040000fa
:040220000e030000c9
:020000040000fa
:040224000e030000c5
:020000040000fa
:040228000e030000c1
:020000040000fa
:04022c000e030000bd
:020000040000fa
:040230000e030000b9
:020000040000fa
:04023400d4020000f0
:020000040000fa
:040238000e030000b1
:020000040000fa
:04023c000e030000ad
:020000040000fa
:040240000e030000a9
:020000040000fa
:040244000e030000a5
:020000040000fa
:040248000e030000a1
:020000040000fa
:04024c000e0300009d
:020000040000fa
:040250000e03000099
:020000040000fa
:040254000e03000095
:020000040000fa
:040258000e03000091
:020000040000fa
:04025c000e0300008d
:020000040000fa
:040260000e03000089
:020000040000fa
:040264000e03000085
:020000040000fa
:040268000e03000081
:020000040000fa
:04026c000e0300007d
:020000040000fa
:040270000e03000079
:020000040000fa
:040274000e03000075
:020000040000fa
:040278000e03000071
:020000040000fa
:04027c000e0300006d
:020000040000fa
:040280000e03000069
:020000040000fa
:040284000e03000065
:020000040000fa
:040288000e03000061
:020000040000fa
:04028c000e0300005d
:020000040000fa
:040290000e03000059
:020000040000fa
:040294000e03000055
:020000040000fa
:040298000e03000051
:020000040000fa
:04029c000e0300004d
:020000040000fa
:0402a0000e03000049
:020000040000fa
:0402a4000e03000045
:020000040000fa
:0402a8000e03000041
:020000040000fa
:0402ac000e0300003d
:020000040000fa
:0402b0000e03000039
:020000040000fa
:0402b4000e03000035
:020000040000fa
:0402b8000e03000031
:020000040000fa
:0402bc000e0300002d
:020000040000fa
:0402c0000e03000029
:020000040000fa
:0402c4000e03000025
:020000040000fa
:0402c8000e03000021
:020000040000fa
:0402cc000e0300001d
:020000040000fa
:0402d0000e03000019
:020000040000fa
:0402d4000e03000015
:020000040000fa
:0402d8000e03000011
:020000040000fa
:0402dc000e0300000d
:020000040000fa
:0402e0000e03000009
:020000040000fa
:0402e4000e03000005
:020000040000fa
:0402e8000e03000001
:020000040000fa
:0402ec000e030000fd
:020000040000fa
:0402f0000e030000f9
:020000040000fa
:0402f4000e030000f5
:020000040000fa
:0402f8000e030000f1
:020000040000fa
:0402fc000e030000ed
:020000040000fa
:040300000e030000e8
:020000040000fa
:040304000e030000e4
:020000040000fa
:040308000e030000e0
:020000040000fa
:04030c000e030000dc
:020000040000fa
:040310000e030000d8
:020000040000fa
:040314000e030000d4
:020000040000fa
:040318000e030000d0
:020000040000fa
:04031c000e030000cc
:020000040000fa
:040320000e030000c8
:020000040000fa
:040324000e030000c4
:020000040000fa
:040328000e030000c0
:020000040000fa
:04032c000e030000bc
:020000040000fa
:040330000e030000b8
:020000040000fa
:040334000e030000b4
:020000040000fa
:100400000fc120000e7f22000e01880000000000b6
:10041000000020000000e000020032000001200087
:100420002002880014000700a00007000000e00080
:1004300003003a00804f2000010020000200370036
:100440000000200001002000810f70000100320038
:1004500014000700000020000000e000020032004d
:100460000000020000000000f20302000000000093
:100470000040da000000fe004440a9000000200017
:100480000000e0000300320000002000a00188000e
:100490004440a800000006008a1f78008b1f7800e7
:1004a0000000060091018800800478000000eb0045
:1004b0001a003700e284440032a0b4009905ba0063
:1004c000e284440032a0b4009906ba00e2844400f9
:1004d00032a0b4000006eb00476fde00fd07b2005b
:1004e000636ce10003003a00ebff07000000eb0043
:1004f0000a003700606ce10004003a00005deb0088
:100500008b05e900fdff3e00040037006168e10053
:10051000010032000086eb000b00070019c7ba008b
:100520001905ba000e04e00003003a000a00e000da
:10053000e0ff3a0000000600fe07b2009e018800be
:100540008a047800f5ff3700395dba008b05e900b1
:100550000c003200295dba008b05e900080032006a
:100560000c00e00003003a00e284440032a0b40032
:10057000f5ff370019ddba008b05e900faff3a00f4
:100580008904e800e184440032a0b40000000600c1
:100590001e040400000000003c04040000000000f1
:1005a00000000400000000003600f800809fbe003c
:1005b000829fbe00849fbe00869fbe000000fa009e
:1005c00020048000680060000000e0000c003200a1
:1005d0008460a900f00007003040880030408000af
:1005e0008000400000802000008040001000780063
:1005f0002000900000000100a000200010088800ea
:100600000080fa004f03be004f02be004f01be0043
:100610004f00be003600f900004006000040da003e
:100620000000fe00889fbe008004780070408000bb
:100630000000e00005003a000000eb000e0007009b
:100640000084eb000000e0000800350078408000e6
:100650000900e00005003200090044000600070020
:100660000000e00001003d000084eb00080078007d
:100670004f04be0000000600800078000100e0008a
:1006800003003a000081200070408800000005004f
:100690000080eb0002c12000828f500002003e006b
:1006a000714088000000eb0000000600000005001b
:1006b0000200fa00889fbe000000e00001003a003e
:1006c000100020000004e8000800a1005040800055
:1006d0000000e8000000a100504088000000200059
:1006e0000000e0000f003200e10f54000600360069
:1006f000e20f440005003a00c0002000604088007e
:100700000000eb002a0037002800200008007800d5
:100710003bfe0700290020000000e00024003a0012
:10072000010037008004eb00504080004140800011
:1007300000805000800f54001300360008804400f1
:10074000d0bf9f00668057001c0007008000780023
:100750000000eb000100e000150032000100e8009d
:100760000000a10041408000810f500001003200d4
:1007700050408800dfb89700010040000000e8000a
:100780000000a10040408800514080000900e000c6
:1007900003003200010078000818780001003700db
:1007a000010078000884440088804000514088009f
:1007b0004f04be000080fa000000060090007800a0
:1007c0000000eb000100e0000500350001007800aa
:1007d00094ff0700e10f400001003a000000eb0029
:0407e000000006000f
:020000040000fa
:1007e4000000fa00320007000e000700e04120007c
:1007f40080007800100020003e000700c043200065
:1008040080007800200020003a0007002d00070037
:100814000600fc0011028000f141b20011028800c0
:10082400ffff37000000fa000428ef000628ef005d
:100834000080fa00000006000000fa007016800034
:100844000000d1006140600000c0ea006140600027
:100854000080fb0061006000000040008116800001
:100864000110a10001007000801688000080fa00c9
:10087400000006000000fa00701680004200de004e
:100884006140600000c0ea00614060000080fb003d
:10089400610060004200dd00811680000120a1009b
:1008a40001007000801688000080fa000000060035
:1008b4000000fa00cc22a900cc42a9000080fa0072
:1008c400000006000000fa00210880000003200058
:1008d40001007000200888008460a9009460a800ca
:1008e400a00020001008880005e1a8000080fa009c
:1008f400000006000600fa0010079800210798007f
:100904000000eb00000f78008000200067ff070064
:10091400000f78001e0078009e0090000108780007
:100924001e007800ae009000210098001e007800a0
:100934008000eb00110098001e0078008000eb009e
:10094400310098001e007800020007000080fa00c1
:10095400000006000200fa00000f7800204080002a
:100964000001400001802000810041009e087800c1
:100974000000e800204088000080fa000000060023
:100984000400fa00000f7800110798000080fa00b4
:10099400000006000000fa0001003700000000001b
:1009a400304080008000e800204080000001780092
:1009b400110009008280d8008000fd0030408800ca
:1009c4003040800080004000008020000080400013
:1009d40010007800100090000000e000efff3a00e3
:0c09e400304080000080fa000000060097
:020000040000fa
:1009f00000080000080000000000000008080000d7
:100a000004000000000000000c08000002000000cc
:100a1000000000000e0800000200000000000000be
:040a200000000000d2
:00000001FF
