:020000040000fa
:080000000002040000000000f2
:020000040000fa
:040008001e030000d3
:020000040000fa
:04000c001e030000cf
:020000040000fa
:040010001e030000cb
:020000040000fa
:040014001e030000c7
:020000040000fa
:040018001e030000c3
:020000040000fa
:04001c001e030000bf
:020000040000fa
:040020001e030000bb
:020000040000fa
:040024001e030000b7
:020000040000fa
:040028001e030000b3
:020000040000fa
:04002c001e030000af
:020000040000fa
:040030001e030000ab
:020000040000fa
:04003400d0020000f6
:020000040000fa
:040038001e030000a3
:020000040000fa
:04003c001e0300009f
:020000040000fa
:040040001e0300009b
:020000040000fa
:040044001e03000097
:020000040000fa
:040048001e03000093
:020000040000fa
:04004c001e0300008f
:020000040000fa
:040050001e0300008b
:020000040000fa
:040054001e03000087
:020000040000fa
:040058001e03000083
:020000040000fa
:04005c001e0300007f
:020000040000fa
:040060001e0300007b
:020000040000fa
:040064001e03000077
:020000040000fa
:040068001e03000073
:020000040000fa
:04006c001e0300006f
:020000040000fa
:040070001e0300006b
:020000040000fa
:040074001e03000067
:020000040000fa
:040078001e03000063
:020000040000fa
:04007c001e0300005f
:020000040000fa
:040080001e0300005b
:020000040000fa
:040084001e03000057
:020000040000fa
:040088001e03000053
:020000040000fa
:04008c001e0300004f
:020000040000fa
:040090001e0300004b
:020000040000fa
:040094001e03000047
:020000040000fa
:040098001e03000043
:020000040000fa
:04009c001e0300003f
:020000040000fa
:0400a0001e0300003b
:020000040000fa
:0400a4001e03000037
:020000040000fa
:0400a8001e03000033
:020000040000fa
:0400ac001e0300002f
:020000040000fa
:0400b0001e0300002b
:020000040000fa
:0400b4001e03000027
:020000040000fa
:0400b8001e03000023
:020000040000fa
:0400bc001e0300001f
:020000040000fa
:0400c0001e0300001b
:020000040000fa
:0400c4001e03000017
:020000040000fa
:0400c8001e03000013
:020000040000fa
:0400cc001e0300000f
:020000040000fa
:0400d0001e0300000b
:020000040000fa
:0400d4001e03000007
:020000040000fa
:0400d8001e03000003
:020000040000fa
:0400dc001e030000ff
:020000040000fa
:0400e0001e030000fb
:020000040000fa
:0400e4001e030000f7
:020000040000fa
:0400e8001e030000f3
:020000040000fa
:0400ec001e030000ef
:020000040000fa
:0400f0001e030000eb
:020000040000fa
:0400f4001e030000e7
:020000040000fa
:0400f8001e030000e3
:020000040000fa
:0400fc001e030000df
:020000040000fa
:040100001e030000da
:020000040000fa
:040104001e030000d6
:020000040000fa
:040108001e030000d2
:020000040000fa
:04010c001e030000ce
:020000040000fa
:040110001e030000ca
:020000040000fa
:040114001e030000c6
:020000040000fa
:040118001e030000c2
:020000040000fa
:04011c001e030000be
:020000040000fa
:040120001e030000ba
:020000040000fa
:040124001e030000b6
:020000040000fa
:040128001e030000b2
:020000040000fa
:04012c001e030000ae
:020000040000fa
:040130001e030000aa
:020000040000fa
:040134001e030000a6
:020000040000fa
:040208001e030000d1
:020000040000fa
:04020c001e030000cd
:020000040000fa
:040210001e030000c9
:020000040000fa
:040214001e030000c5
:020000040000fa
:040218001e030000c1
:020000040000fa
:04021c001e030000bd
:020000040000fa
:040220001e030000b9
:020000040000fa
:040224001e030000b5
:020000040000fa
:040228001e030000b1
:020000040000fa
:04022c001e030000ad
:020000040000fa
:040230001e030000a9
:020000040000fa
:04023400d0020000f4
:020000040000fa
:040238001e030000a1
:020000040000fa
:04023c001e0300009d
:020000040000fa
:040240001e03000099
:020000040000fa
:040244001e03000095
:020000040000fa
:040248001e03000091
:020000040000fa
:04024c001e0300008d
:020000040000fa
:040250001e03000089
:020000040000fa
:040254001e03000085
:020000040000fa
:040258001e03000081
:020000040000fa
:04025c001e0300007d
:020000040000fa
:040260001e03000079
:020000040000fa
:040264001e03000075
:020000040000fa
:040268001e03000071
:020000040000fa
:04026c001e0300006d
:020000040000fa
:040270001e03000069
:020000040000fa
:040274001e03000065
:020000040000fa
:040278001e03000061
:020000040000fa
:04027c001e0300005d
:020000040000fa
:040280001e03000059
:020000040000fa
:040284001e03000055
:020000040000fa
:040288001e03000051
:020000040000fa
:04028c001e0300004d
:020000040000fa
:040290001e03000049
:020000040000fa
:040294001e03000045
:020000040000fa
:040298001e03000041
:020000040000fa
:04029c001e0300003d
:020000040000fa
:0402a0001e03000039
:020000040000fa
:0402a4001e03000035
:020000040000fa
:0402a8001e03000031
:020000040000fa
:0402ac001e0300002d
:020000040000fa
:0402b0001e03000029
:020000040000fa
:0402b4001e03000025
:020000040000fa
:0402b8001e03000021
:020000040000fa
:0402bc001e0300001d
:020000040000fa
:0402c0001e03000019
:020000040000fa
:0402c4001e03000015
:020000040000fa
:0402c8001e03000011
:020000040000fa
:0402cc001e0300000d
:020000040000fa
:0402d0001e03000009
:020000040000fa
:0402d4001e03000005
:020000040000fa
:0402d8001e03000001
:020000040000fa
:0402dc001e030000fd
:020000040000fa
:0402e0001e030000f9
:020000040000fa
:0402e4001e030000f5
:020000040000fa
:0402e8001e030000f1
:020000040000fa
:0402ec001e030000ed
:020000040000fa
:0402f0001e030000e9
:020000040000fa
:0402f4001e030000e5
:020000040000fa
:0402f8001e030000e1
:020000040000fa
:0402fc001e030000dd
:020000040000fa
:040300001e030000d8
:020000040000fa
:040304001e030000d4
:020000040000fa
:040308001e030000d0
:020000040000fa
:04030c001e030000cc
:020000040000fa
:040310001e030000c8
:020000040000fa
:040314001e030000c4
:020000040000fa
:040318001e030000c0
:020000040000fa
:04031c001e030000bc
:020000040000fa
:040320001e030000b8
:020000040000fa
:040324001e030000b4
:020000040000fa
:040328001e030000b0
:020000040000fa
:04032c001e030000ac
:020000040000fa
:040330001e030000a8
:020000040000fa
:040334001e030000a4
:020000040000fa
:100400000f8120000e7f22000e01880000000000f6
:10041000000020000000e000020032000001200087
:100420002002880014000700860007000000e0009a
:1004300003003a00c03d2000010020000200370008
:100440000000200001002000810f70000100320038
:1004500014000700000020000000e000020032004d
:100460000000020000000000240302000000000061
:100470000040da000000fe004440a9000000200017
:100480000000e0000300320000002000a00188000e
:100490004440a800000006008a1f78008b1f7800e7
:1004a0000000060091018800800478000000eb0045
:1004b0001a003700e284440032a0b4009905ba0063
:1004c000e284440032a0b4009906ba00e2844400f9
:1004d00032a0b4000006eb00476fde00fd07b2005b
:1004e000636ce10003003a00ebff07000000eb0043
:1004f0000a003700606ce10004003a00005deb0088
:100500008b05e900fdff3e00040037006168e10053
:10051000010032000086eb000b00070019c7ba008b
:100520001905ba000e04e00003003a000a00e000da
:10053000e0ff3a0000000600fe07b2009e018800be
:100540008a047800f5ff3700395dba008b05e900b1
:100550000c003200295dba008b05e900080032006a
:100560000c00e00003003a00e284440032a0b40032
:10057000f5ff370019ddba008b05e900faff3a00f4
:100580008904e800e184440032a0b40000000600c1
:1005900044030400000000006203040000000000a7
:1005a0003600f800809fbe00829fbe00849fbe0080
:1005b000869fbe000000fa002004800068006000f2
:1005c0000000e000160032008460a90000408000b6
:1005d0006600b90000007800e40040004080200080
:1005e0000080400010007800000001000040800002
:1005f0008000e80010002800008060000000e0009b
:1006000004003d000000e900e1ff2f0000807000c1
:100610000000e80000408800a000200010088800ca
:100620000080fa004f03be004f02be004f01be0023
:100630004f00be003600f900004006000040da001e
:080640000000fe0000000500af
:020000040000fa
:100648000000fa002c0007003000070040342000aa
:1006580080007800100020003900070020362000b4
:100668008000780020002000350007000600fc000c
:1006780011028000f141b20011028800ffff37002b
:100688000000fa00701680000000d1006140600090
:1006980000c0ea00614060000080fb00610060006b
:1006a80000004000811680000110a10001007000c8
:1006b800801688000080fa00000006000000fa009a
:1006c800701680004200de006140600000c0ea0051
:1006d800614060000080fb00610060004200dd00b6
:1006e800811680000120a10001007000801688009a
:1006f8000080fa00000006000000fa00cc22a900e1
:10070800cc42a9000080fa00000006000000fa00b0
:1007180021088000f0fc2f00008060000040a0004d
:10072800200888008460a9009460a800a000200028
:100738001008880005e1a8000080fa000000060003
:100748000400fa00000f780011079800104080009c
:100758006600b900800078004080200000804000da
:100768001e087800104080006600b90080007800fc
:1007780080802000008040009e00900001087800e2
:10078800104080006600b90080007800608020007a
:10079800008040008000eb000108780010408000d5
:1007a8000000e800104088000080fa000000060001
:020000040000fa
:1007b800040800000c000000000000000008000011
:0c07c80004000000000000000000000021
:00000001FF
