:0400000007EF00F016
:0A000800258261ED04F01AEF05F007
:1008000000000DEC05F025EC05F01050050DF3503F
:10081000010FD96EDA6A010EDE6E000EDD6E105029
:10082000050DF350030FD96EDA6AF40EDE6E090E71
:10083000DD6E1050050DF350050FD96EDA6ADF6AD0
:10084000104A112A1050050DF350010FD96EDA6AC3
:10085000020EDE6E000EDD6E1050050DF350030F1C
:10086000D96EDA6ACC0EDE6E090EDD6E1050050D03
:10087000F350050FD96EDA6ADF6A104A112A105058
:10088000050DF350010FD96EDA6A030EDE6E000E0D
:10089000DD6E1050050DF350030FD96EDA6AA20E0B
:1008A000DE6E090EDD6E1050050DF350050FD96E8A
:1008B000DA6ADF6A104A112AF28E5DEF04F007EF60
:1008C00000F00600D9CF1BF0DACF1CF0F3CF1DF0FB
:1008D000F4CF1EF0F2A46FEF04F071EF04F095EF87
:1008E00004F0F2940A0ED66EFC6A05001250050D53
:1008F000F350030FD96EDA6ADECF19F0DDCF1AF0AC
:1009000019C0FDFF1AC0FEFFFF6A010E1224146E0B
:10091000000E1320156E000E176E030E166E9FEC60
:1009200004F014C012F015C013F01EC0F4FF1DC077
:10093000F3FF1CC0DAFF1BC0D9FF2592110016502F
:100940001710D8B4A6EF04F0A8EF04F0CCEF04F031
:10095000010E186EB0EF04F0D89016361736182A2C
:1009600017AEB5EF04F0B7EF04F0ACEF04F016509B
:10097000145C17501558D8A0C0EF04F0C2EF04F073
:10098000C6EF04F01650145E1750155AD89017325F
:100990001632182EB7EF04F014C014F015C015F07D
:1009A000120083B4D6EF04F0D9EF04F0010EDAEFB1
:1009B00004F0000EFF0A246E244624468C502418AE
:1009C000FB0B24188C6ED1EF04F0120083B2EBEF16
:1009D00004F0EEEF04F0010EEFEF04F0000EFF0A5A
:1009E000236E23468C502318FD0B23188C6EE6EFE4
:1009F00004F0120083B0FFEF04F002EF05F0010EE7
:100A000003EF05F0000EFF0A226E8C502218FE0B39
:100A100022188C6EFAEF04F01200D59AD596D550B4
:100A2000F80B0609D56EF28AF294F28C0A0ED66E95
:100A3000D58E120000EE01F0130EEE6AE806FDE11D
:100A400025902592000101EF04F0959095929594E0
:020A5000120092
:00000001FF
